:100000000C9434000C94E101189500001895000040
:10001000189500001895000018950000189500002C
:10002000189500001895000018950000189500001C
:10003000189500001895000018950000189500000C
:100040000C949E011895000018950000189500006A
:1000500018950000189500001895000018950000EC
:1000600018950000189500008FEF8DBFCCE9ECEEDD
:100070004E2E84E08EBFD4E0F3E05F2EA89584B7C7
:10008000082E877F84BF88E1992780936000909332
:100090006000EEEFF3E0A0E0B1E088278D933197A8
:1000A000E9F781E88093C40080E08093C50088E18F
:1000B0008093C1006624529A5A9A219A229A249ACD
:1000C000259A549A559A83E085BD81E084BDE89ACB
:1000D000809169008C7F826080936900789480E0D1
:1000E00090E0A2E0B1E08D939C93E8E2F5E00E94FD
:1000F00018020E941F023FB6F894D201E4E1F5E035
:100100000E94820284E00E944802D201E8E1F5E008
:100110000E94820284E00E9448020E94E700249626
:1001200088E00E9444023FB6F894D201ECE1F5E089
:100130000E94820284E00E944802D201E8E1F5E0D8
:100140000E94820284E00E9448020E94E7002496F6
:1001500088E00E94440284EF91E00E9432023FB6A0
:10016000F894D201E4E1F5E00E94820284E00E946A
:100170004802D201E0E2F5E00E94820284E00E949F
:1001800048020E94E700249688E00E9444023FB69D
:10019000F894D201ECE1F5E00E94820284E00E9432
:1001A0004802D201E0E2F5E00E94820284E00E946F
:1001B00048020E94E700249688E00E94440280EDF5
:1001C00097E00E9432020C947500F894FFCF3FBE76
:1001D000E881F9810E945602E0E2F5E00E945F02A8
:1001E0000E94680211F00C942501EA81FB810E94B3
:1001F0005602ECE1F5E00E945F020E94680211F0F5
:100200000C940D0129985C985D98EEE2F5E00E944F
:1002100018020E941F020C942301EA81FB810E94B4
:100220005602E4E1F5E00E945F020E94680211F0CC
:100230000C9423012A982C982D98E0E4F5E00E9474
:1002400018020E941F020C949D01E881F9810E940E
:100250005602E8E1F5E00E945F020E94680211F098
:100260000C946201EA81FB810E945602ECE1F5E008
:100270000E945F020E94680211F00C944A01299AC0
:100280005C9A5D98E4E5F5E00E9418020E941F0266
:100290000C946001EA81FB810E945602E4E1F5E0E2
:1002A0000E945F020E94680211F00C9460012A9A79
:1002B0002C982D9AE6E6F5E00E9418020E941F0293
:1002C0000C949D01E881F9810E945602E4E2F5E078
:1002D0000E945F020E94680211F00C949D01EA8165
:1002E000FB810E945602ECE1F5E00E945F020E9451
:1002F000680211F00C948701299A5C985D9AE8E7EE
:10030000F5E00E9418020E941F020C949D01EA81F0
:10031000FB810E945602E4E1F5E00E945F020E9428
:10032000680211F00C949D012A9A2C9A2D98ECE801
:10033000F5E00E9418020E941F0208950F921F927A
:100340002F923F924F925F927F92AF92BF920F9304
:100350001F932F933F934F935F936F937F938F934D
:100360009F93AF93BF93CF93DF93EF93FF938FB799
:100370008F9306B549E0040FA0E0B1E00C93009123
:10038000010140910001040F06BD8F918FBFFF91C5
:10039000EF91DF91CF91BF91AF919F918F917F911D
:1003A0006F915F914F913F912F911F910F91BF904E
:1003B000AF907F905F904F903F902F901F900F9045
:1003C00018950F921F922F923F924F925F927F92B9
:1003D000AF92BF920F931F932F933F934F935F93CF
:1003E0006F937F938F939F93AF93BF93CF93DF933D
:1003F000EF93FF938FB78F938F918FBFFF91EF9103
:10040000DF91CF91BF91AF919F918F917F916F912C
:100410005F914F913F912F911F910F91BF90AF909E
:100420007F905F904F903F902F901F900F90189566
:100430000E945B02802D11F005D0FACF08958DE067
:1004400001D08AE00090C00005FEFCCF8093C6007A
:1004500008953197F1F70895689462F80895E89443
:1004600062F80895EF93FF93EE27E82BE92B31F024
:10047000E8E8F3E13197F1F70197D1F7FF91EF91B8
:100480000895481A590A0895481A8827580A08955D
:100490005A924A92480E8827581E88E3481684E0EC
:1004A000580608F40895689462F80895D190E19090
:1004B000F19001910895C895319600200895FBDFD1
:1004C000202DF9DF302DF7DF402DF5DF502D089579
:1004D00007FB00680EF40F7757FB50680EF45F7748
:1004E00007FD02C057FF05C0D216E306F406050754
:1004F00008952D153E054F055007089591E005C05C
:1005000092E003C094E001C098E0D5DF0D929A9587
:10051000E1F708950010434500204345000043459E
:1005200000404345003043454C6F6F7000004D6FF5
:10053000746F722053746F703A204C696E6B730045
:100540004D6F746F722053746F703A2052656368F8
:10055000747300004D6F746F7220566F723A204CA6
:10056000696E6B7300004D6F746F7220566F723A34
:1005700020526563687473004D6F746F72205275FA
:1005800065636B3A204C696E6B7300004D6F746F3E
:100590007220527565636B3A20526563687473000C
:00000001FF
